{
  "_format": "hh-sol-artifact-1",
  "contractName": "LandRegistry",
  "sourceName": "contracts/LandRegistry.sol",
  "abi": [
    {
      "inputs": [],
      "stateMutability": "nonpayable",
      "type": "constructor"
    },
    {
      "anonymous": false,
      "inputs": [
        {
          "indexed": true,
          "internalType": "uint256",
          "name": "landId",
          "type": "uint256"
        },
        {
          "indexed": true,
          "internalType": "address",
          "name": "owner",
          "type": "address"
        },
        {
          "indexed": false,
          "internalType": "bytes32",
          "name": "dataHash",
          "type": "bytes32"
        }
      ],
      "name": "LandRegistered",
      "type": "event"
    },
    {
      "inputs": [],
      "name": "governmentAuthority",
      "outputs": [
        {
          "internalType": "address",
          "name": "",
          "type": "address"
        }
      ],
      "stateMutability": "view",
      "type": "function"
    },
    {
      "inputs": [],
      "name": "landCount",
      "outputs": [
        {
          "internalType": "uint256",
          "name": "",
          "type": "uint256"
        }
      ],
      "stateMutability": "view",
      "type": "function"
    },
    {
      "inputs": [
        {
          "internalType": "uint256",
          "name": "",
          "type": "uint256"
        }
      ],
      "name": "landRecords",
      "outputs": [
        {
          "internalType": "uint256",
          "name": "landId",
          "type": "uint256"
        },
        {
          "internalType": "address",
          "name": "owner",
          "type": "address"
        },
        {
          "internalType": "bytes32",
          "name": "dataHash",
          "type": "bytes32"
        },
        {
          "internalType": "string",
          "name": "propertyAddress",
          "type": "string"
        },
        {
          "internalType": "string",
          "name": "landArea",
          "type": "string"
        },
        {
          "internalType": "bool",
          "name": "isForSale",
          "type": "bool"
        },
        {
          "internalType": "uint256",
          "name": "price",
          "type": "uint256"
        }
      ],
      "stateMutability": "view",
      "type": "function"
    },
    {
      "inputs": [
        {
          "internalType": "address",
          "name": "_owner",
          "type": "address"
        },
        {
          "internalType": "bytes32",
          "name": "_dataHash",
          "type": "bytes32"
        },
        {
          "internalType": "string",
          "name": "_propertyAddress",
          "type": "string"
        },
        {
          "internalType": "string",
          "name": "_landArea",
          "type": "string"
        }
      ],
      "name": "registerLand",
      "outputs": [],
      "stateMutability": "nonpayable",
      "type": "function"
    }
  ],
  "bytecode": "0x608060405234801561001057600080fd5b50336000806101000a81548173ffffffffffffffffffffffffffffffffffffffff021916908373ffffffffffffffffffffffffffffffffffffffff160217905550610d3f806100606000396000f3fe608060405234801561001057600080fd5b506004361061004c5760003560e01c8063293530f714610051578063632ae4021461006f578063c232b83a1461008b578063d7bce658146100c1575b600080fd5b6100596100df565b60405161006691906104de565b60405180910390f35b610089600480360381019061008491906106b5565b610103565b005b6100a560048036038101906100a0919061078a565b610318565b6040516100b8979695949392919061086f565b60405180910390f35b6100c9610497565b6040516100d691906108ec565b60405180910390f35b60008054906101000a900473ffffffffffffffffffffffffffffffffffffffff1681565b60008054906101000a900473ffffffffffffffffffffffffffffffffffffffff1673ffffffffffffffffffffffffffffffffffffffff163373ffffffffffffffffffffffffffffffffffffffff1614610191576040517f08c379a000000000000000000000000000000000000000000000000000000000815260040161018890610979565b60405180910390fd5b600260008154809291906101a4906109c8565b91905055506040518060e0016040528060025481526020018573ffffffffffffffffffffffffffffffffffffffff16815260200184815260200183815260200182815260200160001515815260200160008152506001600060025481526020019081526020016000206000820151816000015560208201518160010160006101000a81548173ffffffffffffffffffffffffffffffffffffffff021916908373ffffffffffffffffffffffffffffffffffffffff16021790555060408201518160020155606082015181600301908161027d9190610c1c565b5060808201518160040190816102939190610c1c565b5060a08201518160050160006101000a81548160ff02191690831515021790555060c082015181600601559050508373ffffffffffffffffffffffffffffffffffffffff166002547f97042602077e053351010f6475da4ac01851ae4289da5f320f93b3c60a34551c8560405161030a9190610cee565b60405180910390a350505050565b60016020528060005260406000206000915090508060000154908060010160009054906101000a900473ffffffffffffffffffffffffffffffffffffffff169080600201549080600301805461036d90610a3f565b80601f016020809104026020016040519081016040528092919081815260200182805461039990610a3f565b80156103e65780601f106103bb576101008083540402835291602001916103e6565b820191906000526020600020905b8154815290600101906020018083116103c957829003601f168201915b5050505050908060040180546103fb90610a3f565b80601f016020809104026020016040519081016040528092919081815260200182805461042790610a3f565b80156104745780601f1061044957610100808354040283529160200191610474565b820191906000526020600020905b81548152906001019060200180831161045757829003601f168201915b5050505050908060050160009054906101000a900460ff16908060060154905087565b60025481565b600073ffffffffffffffffffffffffffffffffffffffff82169050919050565b60006104c88261049d565b9050919050565b6104d8816104bd565b82525050565b60006020820190506104f360008301846104cf565b92915050565b6000604051905090565b600080fd5b600080fd5b610516816104bd565b811461052157600080fd5b50565b6000813590506105338161050d565b92915050565b6000819050919050565b61054c81610539565b811461055757600080fd5b50565b60008135905061056981610543565b92915050565b600080fd5b600080fd5b6000601f19601f8301169050919050565b7f4e487b7100000000000000000000000000000000000000000000000000000000600052604160045260246000fd5b6105c282610579565b810181811067ffffffffffffffff821117156105e1576105e061058a565b5b80604052505050565b60006105f46104f9565b905061060082826105b9565b919050565b600067ffffffffffffffff8211156106205761061f61058a565b5b61062982610579565b9050602081019050919050565b82818337600083830152505050565b600061065861065384610605565b6105ea565b90508281526020810184848401111561067457610673610574565b5b61067f848285610636565b509392505050565b600082601f83011261069c5761069b61056f565b5b81356106ac848260208601610645565b91505092915050565b600080600080608085870312156106cf576106ce610503565b5b60006106dd87828801610524565b94505060206106ee8782880161055a565b935050604085013567ffffffffffffffff81111561070f5761070e610508565b5b61071b87828801610687565b925050606085013567ffffffffffffffff81111561073c5761073b610508565b5b61074887828801610687565b91505092959194509250565b6000819050919050565b61076781610754565b811461077257600080fd5b50565b6000813590506107848161075e565b92915050565b6000602082840312156107a05761079f610503565b5b60006107ae84828501610775565b91505092915050565b6107c081610754565b82525050565b6107cf81610539565b82525050565b600081519050919050565b600082825260208201905092915050565b60005b8381101561080f5780820151818401526020810190506107f4565b60008484015250505050565b6000610826826107d5565b61083081856107e0565b93506108408185602086016107f1565b61084981610579565b840191505092915050565b60008115159050919050565b61086981610854565b82525050565b600060e082019050610884600083018a6107b7565b61089160208301896104cf565b61089e60408301886107c6565b81810360608301526108b0818761081b565b905081810360808301526108c4818661081b565b90506108d360a0830185610860565b6108e060c08301846107b7565b98975050505050505050565b600060208201905061090160008301846107b7565b92915050565b7f4f6e6c7920676f7665726e6d656e7420617574686f726974792063616e20706560008201527f72666f726d207468697320616374696f6e000000000000000000000000000000602082015250565b60006109636031836107e0565b915061096e82610907565b604082019050919050565b6000602082019050818103600083015261099281610956565b9050919050565b7f4e487b7100000000000000000000000000000000000000000000000000000000600052601160045260246000fd5b60006109d382610754565b91507fffffffffffffffffffffffffffffffffffffffffffffffffffffffffffffffff8203610a0557610a04610999565b5b600182019050919050565b7f4e487b7100000000000000000000000000000000000000000000000000000000600052602260045260246000fd5b60006002820490506001821680610a5757607f821691505b602082108103610a6a57610a69610a10565b5b50919050565b60008190508160005260206000209050919050565b60006020601f8301049050919050565b600082821b905092915050565b600060088302610ad27fffffffffffffffffffffffffffffffffffffffffffffffffffffffffffffffff82610a95565b610adc8683610a95565b95508019841693508086168417925050509392505050565b6000819050919050565b6000610b19610b14610b0f84610754565b610af4565b610754565b9050919050565b6000819050919050565b610b3383610afe565b610b47610b3f82610b20565b848454610aa2565b825550505050565b600090565b610b5c610b4f565b610b67818484610b2a565b505050565b5b81811015610b8b57610b80600082610b54565b600181019050610b6d565b5050565b601f821115610bd057610ba181610a70565b610baa84610a85565b81016020851015610bb9578190505b610bcd610bc585610a85565b830182610b6c565b50505b505050565b600082821c905092915050565b6000610bf360001984600802610bd5565b1980831691505092915050565b6000610c0c8383610be2565b9150826002028217905092915050565b610c25826107d5565b67ffffffffffffffff811115610c3e57610c3d61058a565b5b610c488254610a3f565b610c53828285610b8f565b600060209050601f831160018114610c865760008415610c74578287015190505b610c7e8582610c00565b865550610ce6565b601f198416610c9486610a70565b60005b82811015610cbc57848901518255600182019150602085019450602081019050610c97565b86831015610cd95784890151610cd5601f891682610be2565b8355505b6001600288020188555050505b505050505050565b6000602082019050610d0360008301846107c6565b9291505056fea26469706673582212205e17cc5713240369292a2c9affabbefb20d821f6c7613928c7a439604513c39864736f6c63430008180033",
  "linkReferences": {},
  "deployedLinkReferences": {}
}