{
  "_format": "hh-sol-artifact-1",
  "contractName": "LandRegistry",
  "sourceName": "contracts/LandRegistry.sol",
  "abi": [
    {
      "inputs": [],
      "stateMutability": "nonpayable",
      "type": "constructor"
    },
    {
      "anonymous": false,
      "inputs": [
        {
          "indexed": true,
          "internalType": "uint256",
          "name": "landId",
          "type": "uint256"
        },
        {
          "indexed": true,
          "internalType": "address",
          "name": "owner",
          "type": "address"
        },
        {
          "indexed": false,
          "internalType": "bytes32",
          "name": "dataHash",
          "type": "bytes32"
        }
      ],
      "name": "LandRegistered",
      "type": "event"
    },
    {
      "anonymous": false,
      "inputs": [
        {
          "indexed": true,
          "internalType": "uint256",
          "name": "landId",
          "type": "uint256"
        },
        {
          "indexed": true,
          "internalType": "address",
          "name": "previousOwner",
          "type": "address"
        },
        {
          "indexed": true,
          "internalType": "address",
          "name": "newOwner",
          "type": "address"
        }
      ],
      "name": "LandTransferred",
      "type": "event"
    },
    {
      "inputs": [],
      "name": "governmentAuthority",
      "outputs": [
        {
          "internalType": "address",
          "name": "",
          "type": "address"
        }
      ],
      "stateMutability": "view",
      "type": "function"
    },
    {
      "inputs": [],
      "name": "landCount",
      "outputs": [
        {
          "internalType": "uint256",
          "name": "",
          "type": "uint256"
        }
      ],
      "stateMutability": "view",
      "type": "function"
    },
    {
      "inputs": [
        {
          "internalType": "uint256",
          "name": "",
          "type": "uint256"
        }
      ],
      "name": "landRecords",
      "outputs": [
        {
          "internalType": "uint256",
          "name": "landId",
          "type": "uint256"
        },
        {
          "internalType": "address",
          "name": "owner",
          "type": "address"
        },
        {
          "internalType": "bytes32",
          "name": "dataHash",
          "type": "bytes32"
        },
        {
          "internalType": "string",
          "name": "propertyAddress",
          "type": "string"
        },
        {
          "internalType": "string",
          "name": "landArea",
          "type": "string"
        },
        {
          "internalType": "bool",
          "name": "isForSale",
          "type": "bool"
        },
        {
          "internalType": "uint256",
          "name": "price",
          "type": "uint256"
        }
      ],
      "stateMutability": "view",
      "type": "function"
    },
    {
      "inputs": [
        {
          "internalType": "address",
          "name": "_owner",
          "type": "address"
        },
        {
          "internalType": "bytes32",
          "name": "_dataHash",
          "type": "bytes32"
        },
        {
          "internalType": "string",
          "name": "_propertyAddress",
          "type": "string"
        },
        {
          "internalType": "string",
          "name": "_landArea",
          "type": "string"
        }
      ],
      "name": "registerLand",
      "outputs": [],
      "stateMutability": "nonpayable",
      "type": "function"
    },
    {
      "inputs": [
        {
          "internalType": "uint256",
          "name": "_landId",
          "type": "uint256"
        },
        {
          "internalType": "address",
          "name": "_newOwner",
          "type": "address"
        }
      ],
      "name": "transferOwnership",
      "outputs": [],
      "stateMutability": "nonpayable",
      "type": "function"
    }
  ],
  "bytecode": "0x608060405234801561001057600080fd5b50336000806101000a81548173ffffffffffffffffffffffffffffffffffffffff021916908373ffffffffffffffffffffffffffffffffffffffff160217905550611316806100606000396000f3fe608060405234801561001057600080fd5b50600436106100575760003560e01c8063293530f71461005c57806329507f731461007a578063632ae40214610096578063c232b83a146100b2578063d7bce658146100e8575b600080fd5b610064610106565b6040516100719190610853565b60405180910390f35b610094600480360381019061008f91906108e4565b61012a565b005b6100b060048036038101906100ab9190610aa0565b610478565b005b6100cc60048036038101906100c79190610b3f565b61068d565b6040516100df9796959493929190610c24565b60405180910390f35b6100f061080c565b6040516100fd9190610ca1565b60405180910390f35b60008054906101000a900473ffffffffffffffffffffffffffffffffffffffff1681565b81600073ffffffffffffffffffffffffffffffffffffffff166001600083815260200190815260200160002060010160009054906101000a900473ffffffffffffffffffffffffffffffffffffffff1673ffffffffffffffffffffffffffffffffffffffff16036101d0576040517f08c379a00000000000000000000000000000000000000000000000000000000081526004016101c790610d08565b60405180910390fd5b3373ffffffffffffffffffffffffffffffffffffffff166001600083815260200190815260200160002060010160009054906101000a900473ffffffffffffffffffffffffffffffffffffffff1673ffffffffffffffffffffffffffffffffffffffff1614610274576040517f08c379a000000000000000000000000000000000000000000000000000000000815260040161026b90610d9a565b60405180910390fd5b600073ffffffffffffffffffffffffffffffffffffffff168273ffffffffffffffffffffffffffffffffffffffff16036102e3576040517f08c379a00000000000000000000000000000000000000000000000000000000081526004016102da90610e2c565b60405180910390fd5b6001600084815260200190815260200160002060010160009054906101000a900473ffffffffffffffffffffffffffffffffffffffff1673ffffffffffffffffffffffffffffffffffffffff168273ffffffffffffffffffffffffffffffffffffffff1603610387576040517f08c379a000000000000000000000000000000000000000000000000000000000815260040161037e90610ebe565b60405180910390fd5b60006001600085815260200190815260200160002060010160009054906101000a900473ffffffffffffffffffffffffffffffffffffffff169050826001600086815260200190815260200160002060010160006101000a81548173ffffffffffffffffffffffffffffffffffffffff021916908373ffffffffffffffffffffffffffffffffffffffff1602179055508273ffffffffffffffffffffffffffffffffffffffff168173ffffffffffffffffffffffffffffffffffffffff16857f1080b2f211753e5090f26ef7ffdc6bb3e66a125c7290200d10b502160bb1f56660405160405180910390a450505050565b60008054906101000a900473ffffffffffffffffffffffffffffffffffffffff1673ffffffffffffffffffffffffffffffffffffffff163373ffffffffffffffffffffffffffffffffffffffff1614610506576040517f08c379a00000000000000000000000000000000000000000000000000000000081526004016104fd90610f50565b60405180910390fd5b6002600081548092919061051990610f9f565b91905055506040518060e0016040528060025481526020018573ffffffffffffffffffffffffffffffffffffffff16815260200184815260200183815260200182815260200160001515815260200160008152506001600060025481526020019081526020016000206000820151816000015560208201518160010160006101000a81548173ffffffffffffffffffffffffffffffffffffffff021916908373ffffffffffffffffffffffffffffffffffffffff1602179055506040820151816002015560608201518160030190816105f291906111f3565b50608082015181600401908161060891906111f3565b5060a08201518160050160006101000a81548160ff02191690831515021790555060c082015181600601559050508373ffffffffffffffffffffffffffffffffffffffff166002547f97042602077e053351010f6475da4ac01851ae4289da5f320f93b3c60a34551c8560405161067f91906112c5565b60405180910390a350505050565b60016020528060005260406000206000915090508060000154908060010160009054906101000a900473ffffffffffffffffffffffffffffffffffffffff16908060020154908060030180546106e290611016565b80601f016020809104026020016040519081016040528092919081815260200182805461070e90611016565b801561075b5780601f106107305761010080835404028352916020019161075b565b820191906000526020600020905b81548152906001019060200180831161073e57829003601f168201915b50505050509080600401805461077090611016565b80601f016020809104026020016040519081016040528092919081815260200182805461079c90611016565b80156107e95780601f106107be576101008083540402835291602001916107e9565b820191906000526020600020905b8154815290600101906020018083116107cc57829003601f168201915b5050505050908060050160009054906101000a900460ff16908060060154905087565b60025481565b600073ffffffffffffffffffffffffffffffffffffffff82169050919050565b600061083d82610812565b9050919050565b61084d81610832565b82525050565b60006020820190506108686000830184610844565b92915050565b6000604051905090565b600080fd5b600080fd5b6000819050919050565b61089581610882565b81146108a057600080fd5b50565b6000813590506108b28161088c565b92915050565b6108c181610832565b81146108cc57600080fd5b50565b6000813590506108de816108b8565b92915050565b600080604083850312156108fb576108fa610878565b5b6000610909858286016108a3565b925050602061091a858286016108cf565b9150509250929050565b6000819050919050565b61093781610924565b811461094257600080fd5b50565b6000813590506109548161092e565b92915050565b600080fd5b600080fd5b6000601f19601f8301169050919050565b7f4e487b7100000000000000000000000000000000000000000000000000000000600052604160045260246000fd5b6109ad82610964565b810181811067ffffffffffffffff821117156109cc576109cb610975565b5b80604052505050565b60006109df61086e565b90506109eb82826109a4565b919050565b600067ffffffffffffffff821115610a0b57610a0a610975565b5b610a1482610964565b9050602081019050919050565b82818337600083830152505050565b6000610a43610a3e846109f0565b6109d5565b905082815260208101848484011115610a5f57610a5e61095f565b5b610a6a848285610a21565b509392505050565b600082601f830112610a8757610a8661095a565b5b8135610a97848260208601610a30565b91505092915050565b60008060008060808587031215610aba57610ab9610878565b5b6000610ac8878288016108cf565b9450506020610ad987828801610945565b935050604085013567ffffffffffffffff811115610afa57610af961087d565b5b610b0687828801610a72565b925050606085013567ffffffffffffffff811115610b2757610b2661087d565b5b610b3387828801610a72565b91505092959194509250565b600060208284031215610b5557610b54610878565b5b6000610b63848285016108a3565b91505092915050565b610b7581610882565b82525050565b610b8481610924565b82525050565b600081519050919050565b600082825260208201905092915050565b60005b83811015610bc4578082015181840152602081019050610ba9565b60008484015250505050565b6000610bdb82610b8a565b610be58185610b95565b9350610bf5818560208601610ba6565b610bfe81610964565b840191505092915050565b60008115159050919050565b610c1e81610c09565b82525050565b600060e082019050610c39600083018a610b6c565b610c466020830189610844565b610c536040830188610b7b565b8181036060830152610c658187610bd0565b90508181036080830152610c798186610bd0565b9050610c8860a0830185610c15565b610c9560c0830184610b6c565b98975050505050505050565b6000602082019050610cb66000830184610b6c565b92915050565b7f4c616e6420646f6573206e6f742065786973742e000000000000000000000000600082015250565b6000610cf2601483610b95565b9150610cfd82610cbc565b602082019050919050565b60006020820190508181036000830152610d2181610ce5565b9050919050565b7f4f6e6c79207468652063757272656e74206f776e65722063616e20706572666f60008201527f726d207468697320616374696f6e2e0000000000000000000000000000000000602082015250565b6000610d84602f83610b95565b9150610d8f82610d28565b604082019050919050565b60006020820190508181036000830152610db381610d77565b9050919050565b7f4e6577206f776e657220616464726573732063616e6e6f74206265207a65726f60008201527f2e00000000000000000000000000000000000000000000000000000000000000602082015250565b6000610e16602183610b95565b9150610e2182610dba565b604082019050919050565b60006020820190508181036000830152610e4581610e09565b9050919050565b7f4e6577206f776e65722063616e6e6f74206265207468652063757272656e742060008201527f6f776e65722e0000000000000000000000000000000000000000000000000000602082015250565b6000610ea8602683610b95565b9150610eb382610e4c565b604082019050919050565b60006020820190508181036000830152610ed781610e9b565b9050919050565b7f4f6e6c7920676f7665726e6d656e7420617574686f726974792063616e20706560008201527f72666f726d207468697320616374696f6e000000000000000000000000000000602082015250565b6000610f3a603183610b95565b9150610f4582610ede565b604082019050919050565b60006020820190508181036000830152610f6981610f2d565b9050919050565b7f4e487b7100000000000000000000000000000000000000000000000000000000600052601160045260246000fd5b6000610faa82610882565b91507fffffffffffffffffffffffffffffffffffffffffffffffffffffffffffffffff8203610fdc57610fdb610f70565b5b600182019050919050565b7f4e487b7100000000000000000000000000000000000000000000000000000000600052602260045260246000fd5b6000600282049050600182168061102e57607f821691505b60208210810361104157611040610fe7565b5b50919050565b60008190508160005260206000209050919050565b60006020601f8301049050919050565b600082821b905092915050565b6000600883026110a97fffffffffffffffffffffffffffffffffffffffffffffffffffffffffffffffff8261106c565b6110b3868361106c565b95508019841693508086168417925050509392505050565b6000819050919050565b60006110f06110eb6110e684610882565b6110cb565b610882565b9050919050565b6000819050919050565b61110a836110d5565b61111e611116826110f7565b848454611079565b825550505050565b600090565b611133611126565b61113e818484611101565b505050565b5b818110156111625761115760008261112b565b600181019050611144565b5050565b601f8211156111a75761117881611047565b6111818461105c565b81016020851015611190578190505b6111a461119c8561105c565b830182611143565b50505b505050565b600082821c905092915050565b60006111ca600019846008026111ac565b1980831691505092915050565b60006111e383836111b9565b9150826002028217905092915050565b6111fc82610b8a565b67ffffffffffffffff81111561121557611214610975565b5b61121f8254611016565b61122a828285611166565b600060209050601f83116001811461125d576000841561124b578287015190505b61125585826111d7565b8655506112bd565b601f19841661126b86611047565b60005b828110156112935784890151825560018201915060208501945060208101905061126e565b868310156112b057848901516112ac601f8916826111b9565b8355505b6001600288020188555050505b505050505050565b60006020820190506112da6000830184610b7b565b9291505056fea2646970667358221220a62cd10358f8408a40d750a06562672e0414896b80c89da25e998522a140941f64736f6c63430008180033",
  "linkReferences": {},
  "deployedLinkReferences": {}
}